{
  "_format": "hh-sol-artifact-1",
  "contractName": "LotteryClubNFT",
  "sourceName": "contracts/LotteryClubNFT.sol",
  "abi": [
    {
      "inputs": [],
      "stateMutability": "nonpayable",
      "type": "constructor"
    },
    {
      "anonymous": false,
      "inputs": [
        {
          "indexed": false,
          "internalType": "uint256",
          "name": "update_",
          "type": "uint256"
        },
        {
          "indexed": false,
          "internalType": "string",
          "name": "name_",
          "type": "string"
        },
        {
          "indexed": false,
          "internalType": "address",
          "name": "club_",
          "type": "address"
        }
      ],
      "name": "LimitAndDepoUpdate",
      "type": "event"
    },
    {
      "anonymous": false,
      "inputs": [
        {
          "indexed": true,
          "internalType": "address",
          "name": "rewardAddress_",
          "type": "address"
        },
        {
          "indexed": false,
          "internalType": "uint256",
          "name": "reward_",
          "type": "uint256"
        },
        {
          "indexed": false,
          "internalType": "address",
          "name": "club_",
          "type": "address"
        }
      ],
      "name": "RewardUpdate",
      "type": "event"
    },
    {
      "anonymous": false,
      "inputs": [
        {
          "indexed": true,
          "internalType": "address",
          "name": "winer_",
          "type": "address"
        },
        {
          "indexed": false,
          "internalType": "address",
          "name": "club_",
          "type": "address"
        }
      ],
      "name": "Winer",
      "type": "event"
    },
    {
      "inputs": [],
      "name": "claimFee",
      "outputs": [],
      "stateMutability": "nonpayable",
      "type": "function"
    },
    {
      "inputs": [],
      "name": "deposit",
      "outputs": [
        {
          "internalType": "uint256",
          "name": "",
          "type": "uint256"
        }
      ],
      "stateMutability": "view",
      "type": "function"
    },
    {
      "inputs": [],
      "name": "draw",
      "outputs": [],
      "stateMutability": "nonpayable",
      "type": "function"
    },
    {
      "inputs": [],
      "name": "factory",
      "outputs": [
        {
          "internalType": "address",
          "name": "",
          "type": "address"
        }
      ],
      "stateMutability": "view",
      "type": "function"
    },
    {
      "inputs": [
        {
          "internalType": "string",
          "name": "_name",
          "type": "string"
        },
        {
          "internalType": "uint256",
          "name": "_deposit",
          "type": "uint256"
        },
        {
          "internalType": "uint256",
          "name": "_membersLimit",
          "type": "uint256"
        },
        {
          "internalType": "address",
          "name": "_manager",
          "type": "address"
        }
      ],
      "name": "initialize",
      "outputs": [],
      "stateMutability": "nonpayable",
      "type": "function"
    },
    {
      "inputs": [],
      "name": "lotteryStatus",
      "outputs": [
        {
          "internalType": "bool",
          "name": "",
          "type": "bool"
        }
      ],
      "stateMutability": "view",
      "type": "function"
    },
    {
      "inputs": [],
      "name": "manager",
      "outputs": [
        {
          "internalType": "address",
          "name": "",
          "type": "address"
        }
      ],
      "stateMutability": "view",
      "type": "function"
    },
    {
      "inputs": [],
      "name": "membersLimit",
      "outputs": [
        {
          "internalType": "uint256",
          "name": "",
          "type": "uint256"
        }
      ],
      "stateMutability": "view",
      "type": "function"
    },
    {
      "inputs": [],
      "name": "name",
      "outputs": [
        {
          "internalType": "string",
          "name": "",
          "type": "string"
        }
      ],
      "stateMutability": "view",
      "type": "function"
    },
    {
      "inputs": [],
      "name": "register",
      "outputs": [],
      "stateMutability": "payable",
      "type": "function"
    },
    {
      "inputs": [],
      "name": "reward",
      "outputs": [
        {
          "internalType": "uint256",
          "name": "",
          "type": "uint256"
        }
      ],
      "stateMutability": "view",
      "type": "function"
    },
    {
      "inputs": [],
      "name": "rewardAddress",
      "outputs": [
        {
          "internalType": "address",
          "name": "",
          "type": "address"
        }
      ],
      "stateMutability": "view",
      "type": "function"
    },
    {
      "inputs": [
        {
          "internalType": "uint256",
          "name": "_deposit",
          "type": "uint256"
        }
      ],
      "name": "setDeposit",
      "outputs": [],
      "stateMutability": "nonpayable",
      "type": "function"
    },
    {
      "inputs": [
        {
          "internalType": "uint256",
          "name": "_membersLimit",
          "type": "uint256"
        }
      ],
      "name": "setMembersLimit",
      "outputs": [],
      "stateMutability": "nonpayable",
      "type": "function"
    },
    {
      "inputs": [
        {
          "internalType": "address",
          "name": "_rewardAddress",
          "type": "address"
        },
        {
          "internalType": "uint256",
          "name": "_tokenId",
          "type": "uint256"
        }
      ],
      "name": "start",
      "outputs": [],
      "stateMutability": "nonpayable",
      "type": "function"
    },
    {
      "inputs": [],
      "name": "winer",
      "outputs": [
        {
          "internalType": "address",
          "name": "",
          "type": "address"
        }
      ],
      "stateMutability": "view",
      "type": "function"
    }
  ],
  "bytecode": "0x60806040526009805460ff1916905534801561001a57600080fd5b50600780546001600160a01b03199081163317909155600580549091169055611688806100486000396000f3fe6080604052600436106100f35760003560e01c80635bca86921161008a578063c45a015511610059578063c45a015514610273578063d0e30db014610293578063d426b5d4146102a9578063f5bade66146102c957600080fd5b80635bca8692146102085780638cf57cb91461022857806399d32fc414610248578063a47ff04b1461025d57600080fd5b80631aa3a008116100c65780631aa3a00814610184578063228cb7331461018c5780633c2d70e9146101b0578063481c6a75146101d057600080fd5b80630276f050146100f857806306fdde031461011a5780630d683dd9146101455780630eecae211461016f575b600080fd5b34801561010457600080fd5b50610118610113366004611337565b6102e9565b005b34801561012657600080fd5b5061012f6104c4565b60405161013c9190611350565b60405180910390f35b34801561015157600080fd5b5060095461015f9060ff1681565b604051901515815260200161013c565b34801561017b57600080fd5b50610118610552565b61011861080c565b34801561019857600080fd5b506101a260015481565b60405190815260200161013c565b3480156101bc57600080fd5b506101186101cb3660046113bc565b610a57565b3480156101dc57600080fd5b506006546101f0906001600160a01b031681565b6040516001600160a01b03909116815260200161013c565b34801561021457600080fd5b506101186102233660046113e6565b610d32565b34801561023457600080fd5b506004546101f0906001600160a01b031681565b34801561025457600080fd5b50610118610df9565b34801561026957600080fd5b506101a260035481565b34801561027f57600080fd5b506007546101f0906001600160a01b031681565b34801561029f57600080fd5b506101a260025481565b3480156102b557600080fd5b506005546101f0906001600160a01b031681565b3480156102d557600080fd5b506101186102e4366004611337565b610fca565b6006546001600160a01b0316331461036e5760405162461bcd60e51b815260206004820152603560248201527f4c6f7474657279436c7562546f6b656e3a204f6e6c79206d616e61676572206360448201527f616e2063616c6c20746869732066756e6374696f6e000000000000000000000060648201526084015b60405180910390fd5b60095460ff16156103d45760405162461bcd60e51b815260206004820152602a60248201527f4c6f7474657279436c75624e46543a204c6f747465727920697320616c726561604482015269191e481cdd185c9d195960b21b6064820152608401610365565b6000811161044a5760405162461bcd60e51b815260206004820152603460248201527f4c6f7474657279436c75624e46543a204d656d62657273206c696d6974206d7560448201527f73742062652067726561746572207468616e20300000000000000000000000006064820152608401610365565b600381905560408051828152606060208201819052600c908201527f6d656d626572734c696d69740000000000000000000000000000000000000000608082015230918101919091527fc94deff44dff6e4bb709db39a1d09900ce4f1405b187420e7b0c02212a3fdff79060a0015b60405180910390a150565b600080546104d190611479565b80601f01602080910402602001604051908101604052809291908181526020018280546104fd90611479565b801561054a5780601f1061051f5761010080835404028352916020019161054a565b820191906000526020600020905b81548152906001019060200180831161052d57829003601f168201915b505050505081565b6006546001600160a01b031633146105d25760405162461bcd60e51b815260206004820152603560248201527f4c6f7474657279436c7562546f6b656e3a204f6e6c79206d616e61676572206360448201527f616e2063616c6c20746869732066756e6374696f6e00000000000000000000006064820152608401610365565b60095460ff1661064a5760405162461bcd60e51b815260206004820152602660248201527f4c6f7474657279436c75624e46543a204c6f7474657279206973206e6f74207360448201527f74617274656400000000000000000000000000000000000000000000000000006064820152608401610365565b60035460085410156106c45760405162461bcd60e51b815260206004820152602260248201527f4c6f7474657279436c75624e46543a204e6f7420656e6f756768206d656d626560448201527f72730000000000000000000000000000000000000000000000000000000000006064820152608401610365565b6009805460ff19169055600880546106da611199565b6106e491906114b3565b815481106106f4576106f46114d5565b6000918252602080832091909101546005805473ffffffffffffffffffffffffffffffffffffffff19166001600160a01b0392831690811782558452600a90925260408084209390935560048054925460015494517f23b872dd000000000000000000000000000000000000000000000000000000008152309281019290925282166024820152604481019390935216906323b872dd90606401600060405180830381600087803b1580156107a857600080fd5b505af11580156107bc573d6000803e3d6000fd5b505050506107c8611216565b6005546040513081526001600160a01b03909116907f5356b2a7e89c0d12136f0b31d80b9f67ec8f4435581ac4b3ed8bf76c508034cf9060200160405180910390a2565b60095460ff166108845760405162461bcd60e51b815260206004820152602660248201527f4c6f7474657279436c75624e46543a204c6f7474657279206973206e6f74207360448201527f74617274656400000000000000000000000000000000000000000000000000006064820152608401610365565b60025434146108fb5760405162461bcd60e51b815260206004820152602d60248201527f4c6f7474657279436c75624e46543a204465706f73697420616d6f756e74206960448201527f73206e6f7420636f7272656374000000000000000000000000000000000000006064820152608401610365565b600354600854106109745760405162461bcd60e51b815260206004820152602560248201527f4c6f7474657279436c75624e46543a204d656d62657273206c696d697420726560448201527f61636865640000000000000000000000000000000000000000000000000000006064820152608401610365565b336000908152600a6020526040902054156109f75760405162461bcd60e51b815260206004820152602a60248201527f4c6f7474657279436c75624e46543a20596f752061726520616c72656164792060448201527f72656769737465726564000000000000000000000000000000000000000000006064820152608401610365565b336000818152600a602052604081203490556008805460018101825591527ff3f7a9fe364faab93b216da50a3214154f22a0a2b415b23a84c8169e8b636ee301805473ffffffffffffffffffffffffffffffffffffffff19169091179055565b6006546001600160a01b03163314610ad75760405162461bcd60e51b815260206004820152603560248201527f4c6f7474657279436c7562546f6b656e3a204f6e6c79206d616e61676572206360448201527f616e2063616c6c20746869732066756e6374696f6e00000000000000000000006064820152608401610365565b6001600160a01b038216610b535760405162461bcd60e51b815260206004820152602660248201527f4c6f7474657279436c75624e46543a205265776172642061646472657373206960448201527f73207a65726f00000000000000000000000000000000000000000000000000006064820152608401610365565b60095460ff1615610bb95760405162461bcd60e51b815260206004820152602a60248201527f4c6f7474657279436c75624e46543a204c6f747465727920697320616c726561604482015269191e481cdd185c9d195960b21b6064820152608401610365565b6004546001600160a01b031615610c385760405162461bcd60e51b815260206004820152602260248201527f4c6f7474657279436c75624e46543a2052657761726420616c7265616479207360448201527f65740000000000000000000000000000000000000000000000000000000000006064820152608401610365565b6040517f23b872dd000000000000000000000000000000000000000000000000000000008152336004820152306024820152604481018290526001600160a01b038316906323b872dd90606401600060405180830381600087803b158015610c9f57600080fd5b505af1158015610cb3573d6000803e3d6000fd5b50506004805473ffffffffffffffffffffffffffffffffffffffff19166001600160a01b03861690811790915560018481556009805460ff19169091179055604080518581523060208201529193507f331129293c17760fa0f180ae0c0c0f057cf8b60eca347635b69a7da57791745392500160405180910390a25050565b6007546001600160a01b03163314610db25760405162461bcd60e51b815260206004820152603360248201527f4c6f7474657279436c75624e46543a204f6e6c7920666163746f72792063616e60448201527f2063616c6c20746869732066756e6374696f6e000000000000000000000000006064820152608401610365565b6000610dbf858783611550565b506002929092556003556006805473ffffffffffffffffffffffffffffffffffffffff19166001600160a01b039092169190911790555050565b6006546001600160a01b03163314610e795760405162461bcd60e51b815260206004820152603560248201527f4c6f7474657279436c7562546f6b656e3a204f6e6c79206d616e61676572206360448201527f616e2063616c6c20746869732066756e6374696f6e00000000000000000000006064820152608401610365565b60095460ff1615610edf5760405162461bcd60e51b815260206004820152602a60248201527f4c6f7474657279436c75624e46543a204c6f747465727920697320616c726561604482015269191e481cdd185c9d195960b21b6064820152608401610365565b60004711610f2f5760405162461bcd60e51b815260206004820152601a60248201527f4c6f7474657279436c75624e46543a204e6f2062616c616e63650000000000006044820152606401610365565b604051600090339047908381818185875af1925050503d8060008114610f71576040519150601f19603f3d011682016040523d82523d6000602084013e610f76565b606091505b5050905080610fc75760405162461bcd60e51b815260206004820152601f60248201527f4c6f7474657279436c75624e46543a205472616e73666572206661696c6564006044820152606401610365565b50565b6006546001600160a01b0316331461104a5760405162461bcd60e51b815260206004820152603560248201527f4c6f7474657279436c7562546f6b656e3a204f6e6c79206d616e61676572206360448201527f616e2063616c6c20746869732066756e6374696f6e00000000000000000000006064820152608401610365565b60095460ff16156110b05760405162461bcd60e51b815260206004820152602a60248201527f4c6f7474657279436c75624e46543a204c6f747465727920697320616c726561604482015269191e481cdd185c9d195960b21b6064820152608401610365565b600081116111265760405162461bcd60e51b815260206004820152602e60248201527f4c6f7474657279436c75624e46543a204465706f736974206d7573742062652060448201527f67726561746572207468616e20300000000000000000000000000000000000006064820152608401610365565b6002819055604080518281526060602082018190526007908201527f6465706f73697400000000000000000000000000000000000000000000000000608082015230918101919091527fc94deff44dff6e4bb709db39a1d09900ce4f1405b187420e7b0c02212a3fdff79060a0016104b9565b600073dd318eef001bb0867cd5c134496d6cf5aa32311f6001600160a01b0316635ec01e4d6040518163ffffffff1660e01b8152600401602060405180830381865afa1580156111ed573d6000803e3d6000fd5b505050506040513d601f19601f820116820180604052508101906112119190611611565b919050565b60005b600854811015610fc7576000600a60006008848154811061123c5761123c6114d5565b60009182526020808320909101546001600160a01b0316835282019290925260400190205411156113255760006008828154811061127c5761127c6114d5565b6000918252602082200154600880546001600160a01b0390921692600a92909190869081106112ad576112ad6114d5565b6000918252602080832091909101546001600160a01b0316835282019290925260409081018220549051909181818185875af1925050503d8060008114611310576040519150601f19603f3d011682016040523d82523d6000602084013e611315565b606091505b505090508061132357600080fd5b505b8061132f8161162a565b915050611219565b60006020828403121561134957600080fd5b5035919050565b600060208083528351808285015260005b8181101561137d57858101830151858201604001528201611361565b8181111561138f576000604083870101525b50601f01601f1916929092016040019392505050565b80356001600160a01b038116811461121157600080fd5b600080604083850312156113cf57600080fd5b6113d8836113a5565b946020939093013593505050565b6000806000806000608086880312156113fe57600080fd5b853567ffffffffffffffff8082111561141657600080fd5b818801915088601f83011261142a57600080fd5b81358181111561143957600080fd5b89602082850101111561144b57600080fd5b6020928301975095505086013592506040860135915061146d606087016113a5565b90509295509295909350565b600181811c9082168061148d57607f821691505b6020821081036114ad57634e487b7160e01b600052602260045260246000fd5b50919050565b6000826114d057634e487b7160e01b600052601260045260246000fd5b500690565b634e487b7160e01b600052603260045260246000fd5b634e487b7160e01b600052604160045260246000fd5b601f82111561154b57600081815260208120601f850160051c810160208610156115285750805b601f850160051c820191505b8181101561154757828155600101611534565b5050505b505050565b67ffffffffffffffff831115611568576115686114eb565b61157c836115768354611479565b83611501565b6000601f8411600181146115b057600085156115985750838201355b600019600387901b1c1916600186901b17835561160a565b600083815260209020601f19861690835b828110156115e157868501358255602094850194600190920191016115c1565b50868210156115fe5760001960f88860031b161c19848701351681555b505060018560011b0183555b5050505050565b60006020828403121561162357600080fd5b5051919050565b6000600019820361164b57634e487b7160e01b600052601160045260246000fd5b506001019056fea2646970667358221220701d14adb8588e8e353d70aa41c1bb2653fe2fa7ccf7dd5ef958b3795099c2d964736f6c634300080f0033",
  "linkReferences": {},
  "deployedLinkReferences": {}
}