{
  "_format": "hh-sol-artifact-1",
  "contractName": "LotteryClubToken",
  "sourceName": "contracts/LotteryClubToken.sol",
  "abi": [
    {
      "inputs": [],
      "stateMutability": "nonpayable",
      "type": "constructor"
    },
    {
      "anonymous": false,
      "inputs": [
        {
          "indexed": false,
          "internalType": "uint256",
          "name": "reward_",
          "type": "uint256"
        },
        {
          "indexed": false,
          "internalType": "uint256",
          "name": "deposit_",
          "type": "uint256"
        },
        {
          "indexed": false,
          "internalType": "uint256",
          "name": "membersLimit_",
          "type": "uint256"
        },
        {
          "indexed": false,
          "internalType": "address",
          "name": "club",
          "type": "address"
        }
      ],
      "name": "RewardUpdate",
      "type": "event"
    },
    {
      "anonymous": false,
      "inputs": [
        {
          "indexed": true,
          "internalType": "address",
          "name": "winer_",
          "type": "address"
        },
        {
          "indexed": false,
          "internalType": "address",
          "name": "club",
          "type": "address"
        }
      ],
      "name": "Winer",
      "type": "event"
    },
    {
      "inputs": [],
      "name": "claimFee",
      "outputs": [],
      "stateMutability": "nonpayable",
      "type": "function"
    },
    {
      "inputs": [],
      "name": "deposit",
      "outputs": [
        {
          "internalType": "uint256",
          "name": "",
          "type": "uint256"
        }
      ],
      "stateMutability": "view",
      "type": "function"
    },
    {
      "inputs": [],
      "name": "draw",
      "outputs": [],
      "stateMutability": "nonpayable",
      "type": "function"
    },
    {
      "inputs": [],
      "name": "factory",
      "outputs": [
        {
          "internalType": "address",
          "name": "",
          "type": "address"
        }
      ],
      "stateMutability": "view",
      "type": "function"
    },
    {
      "inputs": [
        {
          "internalType": "string",
          "name": "name_",
          "type": "string"
        },
        {
          "internalType": "uint256",
          "name": "reward_",
          "type": "uint256"
        },
        {
          "internalType": "uint256",
          "name": "deposit_",
          "type": "uint256"
        },
        {
          "internalType": "uint256",
          "name": "membersLimit_",
          "type": "uint256"
        },
        {
          "internalType": "uint256",
          "name": "managerFee_",
          "type": "uint256"
        },
        {
          "internalType": "address",
          "name": "rewardAddress_",
          "type": "address"
        },
        {
          "internalType": "address",
          "name": "manager_",
          "type": "address"
        }
      ],
      "name": "initialize",
      "outputs": [],
      "stateMutability": "nonpayable",
      "type": "function"
    },
    {
      "inputs": [],
      "name": "lotteryStatus",
      "outputs": [
        {
          "internalType": "bool",
          "name": "",
          "type": "bool"
        }
      ],
      "stateMutability": "view",
      "type": "function"
    },
    {
      "inputs": [],
      "name": "manager",
      "outputs": [
        {
          "internalType": "address",
          "name": "",
          "type": "address"
        }
      ],
      "stateMutability": "view",
      "type": "function"
    },
    {
      "inputs": [],
      "name": "membersLimit",
      "outputs": [
        {
          "internalType": "uint256",
          "name": "",
          "type": "uint256"
        }
      ],
      "stateMutability": "view",
      "type": "function"
    },
    {
      "inputs": [],
      "name": "name",
      "outputs": [
        {
          "internalType": "string",
          "name": "",
          "type": "string"
        }
      ],
      "stateMutability": "view",
      "type": "function"
    },
    {
      "inputs": [],
      "name": "register",
      "outputs": [],
      "stateMutability": "nonpayable",
      "type": "function"
    },
    {
      "inputs": [],
      "name": "reward",
      "outputs": [
        {
          "internalType": "uint256",
          "name": "",
          "type": "uint256"
        }
      ],
      "stateMutability": "view",
      "type": "function"
    },
    {
      "inputs": [],
      "name": "rewardAddress",
      "outputs": [
        {
          "internalType": "address",
          "name": "",
          "type": "address"
        }
      ],
      "stateMutability": "view",
      "type": "function"
    },
    {
      "inputs": [
        {
          "internalType": "uint256",
          "name": "deposit_",
          "type": "uint256"
        }
      ],
      "name": "setDeposit",
      "outputs": [],
      "stateMutability": "nonpayable",
      "type": "function"
    },
    {
      "inputs": [
        {
          "internalType": "uint256",
          "name": "membersLimit_",
          "type": "uint256"
        }
      ],
      "name": "setMembersLimit",
      "outputs": [],
      "stateMutability": "nonpayable",
      "type": "function"
    },
    {
      "inputs": [],
      "name": "start",
      "outputs": [],
      "stateMutability": "nonpayable",
      "type": "function"
    },
    {
      "inputs": [],
      "name": "winer",
      "outputs": [
        {
          "internalType": "address",
          "name": "",
          "type": "address"
        }
      ],
      "stateMutability": "view",
      "type": "function"
    }
  ],
  "bytecode": "0x6080604052600a805460ff1916905534801561001a57600080fd5b50600880546001600160a01b03199081163317909155600680549091169055611583806100486000396000f3fe608060405234801561001057600080fd5b50600436106101005760003560e01c806399d32fc411610097578063c45a015511610066578063c45a0155146101e6578063d0e30db0146101f9578063d426b5d414610202578063f5bade661461021557600080fd5b806399d32fc4146101ba578063a47ff04b146101c2578063a947c574146101cb578063be9a6555146101de57600080fd5b80631aa3a008116100d35780631aa3a0081461015d578063228cb73314610165578063481c6a751461017c5780638cf57cb9146101a757600080fd5b80630276f0501461010557806306fdde031461011a5780630d683dd9146101385780630eecae2114610155575b600080fd5b6101186101133660046111bd565b610228565b005b610122610392565b60405161012f91906111d6565b60405180910390f35b600a546101459060ff1681565b604051901515815260200161012f565b610118610420565b6101186107c3565b61016e60015481565b60405190815260200161012f565b60075461018f906001600160a01b031681565b6040516001600160a01b03909116815260200161012f565b60055461018f906001600160a01b031681565b610118610a36565b61016e60035481565b6101186101d9366004611242565b610c2f565b610118610d0f565b60085461018f906001600160a01b031681565b61016e60025481565b60065461018f906001600160a01b031681565b6101186102233660046111bd565b610e05565b6007546001600160a01b031633146102ad5760405162461bcd60e51b815260206004820152603560248201527f4c6f7474657279436c7562546f6b656e3a204f6e6c79206d616e61676572206360448201527f616e2063616c6c20746869732066756e6374696f6e000000000000000000000060648201526084015b60405180910390fd5b600a5460ff161561030c5760405162461bcd60e51b8152602060048201526024808201527f4c6f7474657279436c7562546f6b656e3a204c6f74746572792069732072756e6044820152636e696e6760e01b60648201526084016102a4565b600081116103825760405162461bcd60e51b815260206004820152603660248201527f4c6f7474657279436c7562546f6b656e3a204d656d62657273206c696d69742060448201527f6d7573742062652067726561746572207468616e20300000000000000000000060648201526084016102a4565b600381905561038f610f63565b50565b6000805461039f906112f8565b80601f01602080910402602001604051908101604052809291908181526020018280546103cb906112f8565b80156104185780601f106103ed57610100808354040283529160200191610418565b820191906000526020600020905b8154815290600101906020018083116103fb57829003601f168201915b505050505081565b6007546001600160a01b031633146104a05760405162461bcd60e51b815260206004820152603560248201527f4c6f7474657279436c7562546f6b656e3a204f6e6c79206d616e61676572206360448201527f616e2063616c6c20746869732066756e6374696f6e000000000000000000000060648201526084016102a4565b600a5460ff166105185760405162461bcd60e51b815260206004820152602860248201527f4c6f7474657279436c7562546f6b656e3a204c6f7474657279206973206e6f7460448201527f2072756e6e696e6700000000000000000000000000000000000000000000000060648201526084016102a4565b60035460095410156105915760405162461bcd60e51b8152602060048201526024808201527f4c6f7474657279436c7562546f6b656e3a204e6f7420656e6f756768206d656d60448201527f626572730000000000000000000000000000000000000000000000000000000060648201526084016102a4565b6001546005546040517f70a082310000000000000000000000000000000000000000000000000000000081523060048201526001600160a01b03909116906370a0823190602401602060405180830381865afa1580156105f5573d6000803e3d6000fd5b505050506040513d601f19601f820116820180604052508101906106199190611332565b101561068d5760405162461bcd60e51b815260206004820152602360248201527f4c6f7474657279436c7562546f6b656e3a204e6f7420656e6f7567682072657760448201527f617264000000000000000000000000000000000000000000000000000000000060648201526084016102a4565b600a805460ff19169055600980546106a3610ff6565b6106ad9190611361565b815481106106bd576106bd611375565b6000918252602090912001546006805473ffffffffffffffffffffffffffffffffffffffff19166001600160a01b039283169081179091556005546001546040517fa9059cbb000000000000000000000000000000000000000000000000000000008152600481019390935260248301529091169063a9059cbb906044016020604051808303816000875af115801561075a573d6000803e3d6000fd5b505050506040513d601f19601f8201168201806040525081019061077e919061138b565b506006546040513081526001600160a01b03909116907f5356b2a7e89c0d12136f0b31d80b9f67ec8f4435581ac4b3ed8bf76c508034cf9060200160405180910390a2565b600a5460ff1661083b5760405162461bcd60e51b815260206004820152602860248201527f4c6f7474657279436c7562546f6b656e3a204c6f7474657279206973206e6f7460448201527f2072756e6e696e6700000000000000000000000000000000000000000000000060648201526084016102a4565b600354600954106108b45760405162461bcd60e51b815260206004820152602760248201527f4c6f7474657279436c7562546f6b656e3a204d656d62657273206c696d69742060448201527f726561636865640000000000000000000000000000000000000000000000000060648201526084016102a4565b336000908152600b6020526040902054156109375760405162461bcd60e51b815260206004820152602c60248201527f4c6f7474657279436c7562546f6b656e3a20596f752061726520616c7265616460448201527f792072656769737465726564000000000000000000000000000000000000000060648201526084016102a4565b6005546002546040517f23b872dd00000000000000000000000000000000000000000000000000000000815233600482015230602482015260448101919091526001600160a01b03909116906323b872dd906064016020604051808303816000875af11580156109ab573d6000803e3d6000fd5b505050506040513d601f19601f820116820180604052508101906109cf919061138b565b50600254336000818152600b60205260408120929092556009805460018101825592527f6e1540171b6c0c960b71a7020d9f60077f6af931a8bbf590da0223dacf75c7af909101805473ffffffffffffffffffffffffffffffffffffffff19169091179055565b6007546001600160a01b03163314610ab65760405162461bcd60e51b815260206004820152603560248201527f4c6f7474657279436c7562546f6b656e3a204f6e6c79206d616e61676572206360448201527f616e2063616c6c20746869732066756e6374696f6e000000000000000000000060648201526084016102a4565b600a5460ff1615610b155760405162461bcd60e51b8152602060048201526024808201527f4c6f7474657279436c7562546f6b656e3a204c6f74746572792069732072756e6044820152636e696e6760e01b60648201526084016102a4565b600060045411610b8d5760405162461bcd60e51b815260206004820152602260248201527f4c6f7474657279436c7562546f6b656e3a204d616e616765722066656520697360448201527f203000000000000000000000000000000000000000000000000000000000000060648201526084016102a4565b60048054600082556005546007546040517fa9059cbb0000000000000000000000000000000000000000000000000000000081526001600160a01b039182169481019490945260248401839052919291169063a9059cbb906044016020604051808303816000875af1158015610c07573d6000803e3d6000fd5b505050506040513d601f19601f82011682018060405250810190610c2b919061138b565b5050565b6008546001600160a01b03163314610caf5760405162461bcd60e51b815260206004820152603560248201527f4c6f7474657279436c7562546f6b656e3a204f6e6c7920666163746f7279206360448201527f616e2063616c6c20746869732066756e6374696f6e000000000000000000000060648201526084016102a4565b6000610cbc888a83611412565b50600195909555600293909355600391909155600455600580546001600160a01b0392831673ffffffffffffffffffffffffffffffffffffffff1991821617909155600780549290931691161790555050565b6007546001600160a01b03163314610d8f5760405162461bcd60e51b815260206004820152603560248201527f4c6f7474657279436c7562546f6b656e3a204f6e6c79206d616e61676572206360448201527f616e2063616c6c20746869732066756e6374696f6e000000000000000000000060648201526084016102a4565b600a5460ff1615610dee5760405162461bcd60e51b8152602060048201526024808201527f4c6f7474657279436c7562546f6b656e3a204c6f74746572792069732072756e6044820152636e696e6760e01b60648201526084016102a4565b600a805460ff19166001179055610e03611073565b565b6007546001600160a01b03163314610e855760405162461bcd60e51b815260206004820152603560248201527f4c6f7474657279436c7562546f6b656e3a204f6e6c79206d616e61676572206360448201527f616e2063616c6c20746869732066756e6374696f6e000000000000000000000060648201526084016102a4565b600a5460ff1615610ee45760405162461bcd60e51b8152602060048201526024808201527f4c6f7474657279436c7562546f6b656e3a204c6f74746572792069732072756e6044820152636e696e6760e01b60648201526084016102a4565b60008111610f5a5760405162461bcd60e51b815260206004820152603060248201527f4c6f7474657279436c7562546f6b656e3a204465706f736974206d757374206260448201527f652067726561746572207468616e20300000000000000000000000000000000060648201526084016102a4565b600281905561038f5b6000610f7c60035460025461110b90919063ffffffff16565b9050610f946064610f8e83600261110b565b9061111e565b6004819055610fa490829061112a565b600181905560025460035460408051938452602084019290925282820152306060830152517fc26429a6bdd6b55c2a9cf99c9a5b312e635521d6d6e887e3e0754b613a755b5c9181900360800190a150565b600073dd318eef001bb0867cd5c134496d6cf5aa32311f6001600160a01b0316635ec01e4d6040518163ffffffff1660e01b8152600401602060405180830381865afa15801561104a573d6000803e3d6000fd5b505050506040513d601f19601f8201168201806040525081019061106e9190611332565b919050565b6006805473ffffffffffffffffffffffffffffffffffffffff1916905560005b6009548110156110ed576000600b6000600984815481106110b6576110b6611375565b60009182526020808320909101546001600160a01b03168352820192909252604001902055806110e5816114e9565b915050611093565b50604080516000815260208101918290525161038f91600991611136565b60006111178284611503565b9392505050565b60006111178284611522565b60006111178284611536565b828054828255906000526020600020908101928215611198579160200282015b82811115611198578251825473ffffffffffffffffffffffffffffffffffffffff19166001600160a01b03909116178255602090920191600190910190611156565b506111a49291506111a8565b5090565b5b808211156111a457600081556001016111a9565b6000602082840312156111cf57600080fd5b5035919050565b600060208083528351808285015260005b81811015611203578581018301518582016040015282016111e7565b81811115611215576000604083870101525b50601f01601f1916929092016040019392505050565b80356001600160a01b038116811461106e57600080fd5b60008060008060008060008060e0898b03121561125e57600080fd5b883567ffffffffffffffff8082111561127657600080fd5b818b0191508b601f83011261128a57600080fd5b81358181111561129957600080fd5b8c60208285010111156112ab57600080fd5b60209283019a5098505089013595506040890135945060608901359350608089013592506112db60a08a0161122b565b91506112e960c08a0161122b565b90509295985092959890939650565b600181811c9082168061130c57607f821691505b60208210810361132c57634e487b7160e01b600052602260045260246000fd5b50919050565b60006020828403121561134457600080fd5b5051919050565b634e487b7160e01b600052601260045260246000fd5b6000826113705761137061134b565b500690565b634e487b7160e01b600052603260045260246000fd5b60006020828403121561139d57600080fd5b8151801515811461111757600080fd5b634e487b7160e01b600052604160045260246000fd5b601f82111561140d57600081815260208120601f850160051c810160208610156113ea5750805b601f850160051c820191505b81811015611409578281556001016113f6565b5050505b505050565b67ffffffffffffffff83111561142a5761142a6113ad565b61143e8361143883546112f8565b836113c3565b6000601f841160018114611472576000851561145a5750838201355b600019600387901b1c1916600186901b1783556114cc565b600083815260209020601f19861690835b828110156114a35786850135825560209485019460019092019101611483565b50868210156114c05760001960f88860031b161c19848701351681555b505060018560011b0183555b5050505050565b634e487b7160e01b600052601160045260246000fd5b600060001982036114fc576114fc6114d3565b5060010190565b600081600019048311821515161561151d5761151d6114d3565b500290565b6000826115315761153161134b565b500490565b600082821015611548576115486114d3565b50039056fea264697066735822122063687e23c0f52614da9bf6336e304146dbd83e7e501a349ba2e22984f088c46a64736f6c634300080f0033",
  "linkReferences": {},
  "deployedLinkReferences": {}
}