{
  "_format": "hh-sol-artifact-1",
  "contractName": "LotteryClubFactory",
  "sourceName": "contracts/LotteryClubFactory.sol",
  "abi": [
    {
      "anonymous": false,
      "inputs": [
        {
          "indexed": true,
          "internalType": "address",
          "name": "club",
          "type": "address"
        },
        {
          "indexed": false,
          "internalType": "string",
          "name": "name",
          "type": "string"
        },
        {
          "indexed": false,
          "internalType": "uint256",
          "name": "deposit",
          "type": "uint256"
        },
        {
          "indexed": false,
          "internalType": "uint256",
          "name": "membersLimit",
          "type": "uint256"
        },
        {
          "indexed": false,
          "internalType": "uint256",
          "name": "reward",
          "type": "uint256"
        },
        {
          "indexed": false,
          "internalType": "address",
          "name": "rewardAddress",
          "type": "address"
        },
        {
          "indexed": false,
          "internalType": "address",
          "name": "manager",
          "type": "address"
        },
        {
          "indexed": false,
          "internalType": "bytes32",
          "name": "typeHash",
          "type": "bytes32"
        }
      ],
      "name": "NewClub",
      "type": "event"
    },
    {
      "inputs": [],
      "name": "NFT_TYPEHASH",
      "outputs": [
        {
          "internalType": "bytes32",
          "name": "",
          "type": "bytes32"
        }
      ],
      "stateMutability": "view",
      "type": "function"
    },
    {
      "inputs": [],
      "name": "TOKEN_TYPEHASH",
      "outputs": [
        {
          "internalType": "bytes32",
          "name": "",
          "type": "bytes32"
        }
      ],
      "stateMutability": "view",
      "type": "function"
    },
    {
      "inputs": [
        {
          "internalType": "string",
          "name": "_name",
          "type": "string"
        },
        {
          "internalType": "uint256",
          "name": "_deposit",
          "type": "uint256"
        },
        {
          "internalType": "uint256",
          "name": "_membersLimit",
          "type": "uint256"
        }
      ],
      "name": "clubNFT",
      "outputs": [],
      "stateMutability": "nonpayable",
      "type": "function"
    },
    {
      "inputs": [
        {
          "internalType": "string",
          "name": "name_",
          "type": "string"
        },
        {
          "internalType": "uint256",
          "name": "deposit_",
          "type": "uint256"
        },
        {
          "internalType": "uint256",
          "name": "membersLimit_",
          "type": "uint256"
        },
        {
          "internalType": "address",
          "name": "rewardAddress_",
          "type": "address"
        }
      ],
      "name": "clubToken",
      "outputs": [],
      "stateMutability": "nonpayable",
      "type": "function"
    }
  ],
  "bytecode": "0x608060405234801561001057600080fd5b506138f2806100206000396000f3fe608060405234801561001057600080fd5b506004361061004c5760003560e01c80635c3e4d41146100515780636a6db2be1461008a578063c0fb53221461009f578063fc1edae0146100c6575b600080fd5b6100787f9c4138cd0a1311e4748f70d0fe3dc55f0f5f75e0f20db731225cbc3b8914016a81565b60405190815260200160405180910390f35b61009d6100983660046108e5565b6100d9565b005b6100787f96706879d29c248edfb2a2563a8a9d571c49634c0f82013e6f5a7cde739d35d481565b61009d6100d4366004610936565b6103b9565b600082116101545760405162461bcd60e51b815260206004820152603260248201527f4c6f7474657279436c7562466163746f72793a204465706f736974206d75737460448201527f2062652067726561746572207468616e2030000000000000000000000000000060648201526084015b60405180910390fd5b600081116101ca5760405162461bcd60e51b815260206004820152603860248201527f4c6f7474657279436c7562466163746f72793a204d656d62657273206c696d6960448201527f74206d7573742062652067726561746572207468616e20300000000000000000606482015260840161014b565b600084848484336040516020016101e59594939291906109ad565b60405160208183030381529060405280519060200120905061020681610733565b156102795760405162461bcd60e51b815260206004820152602760248201527f4c6f7474657279436c7562466163746f72793a20436c756220616c726561647960448201527f2065786973747300000000000000000000000000000000000000000000000000606482015260840161014b565b60008160405161028890610882565b8190604051809103906000f59050801580156102a8573d6000803e3d6000fd5b506040517f5bca86920000000000000000000000000000000000000000000000000000000081529091506001600160a01b03821690635bca8692906102f99089908990899089903390600401610a09565b600060405180830381600087803b15801561031357600080fd5b505af1158015610327573d6000803e3d6000fd5b505050506001600160a01b038116600081815260208190526040808220805460ff19166001179055517f61fa221ac52922a5b46d584e4a934d788710f3060c2aa2fe0519e720a1052b2c916103a9918a918a918a918a91819033907f9c4138cd0a1311e4748f70d0fe3dc55f0f5f75e0f20db731225cbc3b8914016a90610a43565b60405180910390a2505050505050565b6000831161042f5760405162461bcd60e51b815260206004820152603260248201527f4c6f7474657279436c7562466163746f72793a204465706f736974206d75737460448201527f2062652067726561746572207468616e20300000000000000000000000000000606482015260840161014b565b600082116104a55760405162461bcd60e51b815260206004820152603860248201527f4c6f7474657279436c7562466163746f72793a204d656d62657273206c696d6960448201527f74206d7573742062652067726561746572207468616e20300000000000000000606482015260840161014b565b6001600160a01b0381166105215760405162461bcd60e51b815260206004820152603b60248201527f4c6f7474657279436c7562466163746f72793a2052657761726420616464726560448201527f7373206d757374206265206e6f74207a65726f20616464726573730000000000606482015260840161014b565b60008061052e858561081b565b915091506000878787878688336040516020016105519796959493929190610a92565b60405160208183030381529060405280519060200120905061057281610733565b156105e55760405162461bcd60e51b815260206004820152602760248201527f4c6f7474657279436c7562466163746f72793a20436c756220616c726561647960448201527f2065786973747300000000000000000000000000000000000000000000000000606482015260840161014b565b6000816040516105f49061088f565b8190604051809103906000f5905080158015610614573d6000803e3d6000fd5b506040517fa947c5740000000000000000000000000000000000000000000000000000000081529091506001600160a01b0382169063a947c5749061066b908c908c9089908d908d908b908e903390600401610ad6565b600060405180830381600087803b15801561068557600080fd5b505af1158015610699573d6000803e3d6000fd5b5050506001600160a01b03821660008181526020819052604090819020805460ff19166001179055519091507f61fa221ac52922a5b46d584e4a934d788710f3060c2aa2fe0519e720a1052b2c90610720908c908c908c908c908b908d9033907f96706879d29c248edfb2a2563a8a9d571c49634c0f82013e6f5a7cde739d35d490610a43565b60405180910390a2505050505050505050565b60008060ff60f81b30846040518060200161074d9061088f565b601f1982820381018352601f90910116604081905261076f9190602001610b28565b604051602081830303815290604052805190602001206040516020016107e494939291907fff0000000000000000000000000000000000000000000000000000000000000094909416845260609290921b6bffffffffffffffffffffffff191660018401526015830152603582015260550190565b60408051601f1981840301815291815281516020928301206001600160a01b031660009081529182905290205460ff169392505050565b600080806108298585610857565b9050610841606461083b836002610857565b9061086a565b915061084d8183610876565b9250509250929050565b60006108638284610b92565b9392505050565b60006108638284610bcf565b60006108638284610c0a565b6116d080610c2283390190565b6115cb806122f283390190565b60008083601f8401126108ae57600080fd5b50813567ffffffffffffffff8111156108c657600080fd5b6020830191508360208285010111156108de57600080fd5b9250929050565b600080600080606085870312156108fb57600080fd5b843567ffffffffffffffff81111561091257600080fd5b61091e8782880161089c565b90989097506020870135966040013595509350505050565b60008060008060006080868803121561094e57600080fd5b853567ffffffffffffffff81111561096557600080fd5b6109718882890161089c565b909650945050602086013592506040860135915060608601356001600160a01b038116811461099f57600080fd5b809150509295509295909350565b84868237909301918252602082015260609190911b6bffffffffffffffffffffffff19166040820152605401919050565b818352818160208501375060006020828401015260006020601f19601f840116840101905092915050565b608081526000610a1d6080830187896109de565b60208301959095525060408101929092526001600160a01b031660609091015292915050565b60e081526000610a5760e083018a8c6109de565b602083019890985250604081019590955260608501939093526001600160a01b0391821660808501521660a083015260c09091015292915050565b8688823790950193845260208401929092526040830152606090811b6bffffffffffffffffffffffff199081168284015292901b9091166074820152608801919050565b60e081526000610aea60e083018a8c6109de565b6020830198909852506040810195909552606085019390935260808401919091526001600160a01b0390811660a08401521660c09091015292915050565b6000825160005b81811015610b495760208186018101518583015201610b2f565b81811115610b58576000828501525b509190910192915050565b7f4e487b7100000000000000000000000000000000000000000000000000000000600052601160045260246000fd5b6000817fffffffffffffffffffffffffffffffffffffffffffffffffffffffffffffffff0483118215151615610bca57610bca610b63565b500290565b600082610c05577f4e487b7100000000000000000000000000000000000000000000000000000000600052601260045260246000fd5b500490565b600082821015610c1c57610c1c610b63565b50039056fe60806040526009805460ff1916905534801561001a57600080fd5b50600780546001600160a01b03199081163317909155600580549091169055611688806100486000396000f3fe6080604052600436106100f35760003560e01c80635bca86921161008a578063c45a015511610059578063c45a015514610273578063d0e30db014610293578063d426b5d4146102a9578063f5bade66146102c957600080fd5b80635bca8692146102085780638cf57cb91461022857806399d32fc414610248578063a47ff04b1461025d57600080fd5b80631aa3a008116100c65780631aa3a00814610184578063228cb7331461018c5780633c2d70e9146101b0578063481c6a75146101d057600080fd5b80630276f050146100f857806306fdde031461011a5780630d683dd9146101455780630eecae211461016f575b600080fd5b34801561010457600080fd5b50610118610113366004611337565b6102e9565b005b34801561012657600080fd5b5061012f6104c4565b60405161013c9190611350565b60405180910390f35b34801561015157600080fd5b5060095461015f9060ff1681565b604051901515815260200161013c565b34801561017b57600080fd5b50610118610552565b61011861080c565b34801561019857600080fd5b506101a260015481565b60405190815260200161013c565b3480156101bc57600080fd5b506101186101cb3660046113bc565b610a57565b3480156101dc57600080fd5b506006546101f0906001600160a01b031681565b6040516001600160a01b03909116815260200161013c565b34801561021457600080fd5b506101186102233660046113e6565b610d32565b34801561023457600080fd5b506004546101f0906001600160a01b031681565b34801561025457600080fd5b50610118610df9565b34801561026957600080fd5b506101a260035481565b34801561027f57600080fd5b506007546101f0906001600160a01b031681565b34801561029f57600080fd5b506101a260025481565b3480156102b557600080fd5b506005546101f0906001600160a01b031681565b3480156102d557600080fd5b506101186102e4366004611337565b610fca565b6006546001600160a01b0316331461036e5760405162461bcd60e51b815260206004820152603560248201527f4c6f7474657279436c7562546f6b656e3a204f6e6c79206d616e61676572206360448201527f616e2063616c6c20746869732066756e6374696f6e000000000000000000000060648201526084015b60405180910390fd5b60095460ff16156103d45760405162461bcd60e51b815260206004820152602a60248201527f4c6f7474657279436c75624e46543a204c6f747465727920697320616c726561604482015269191e481cdd185c9d195960b21b6064820152608401610365565b6000811161044a5760405162461bcd60e51b815260206004820152603460248201527f4c6f7474657279436c75624e46543a204d656d62657273206c696d6974206d7560448201527f73742062652067726561746572207468616e20300000000000000000000000006064820152608401610365565b600381905560408051828152606060208201819052600c908201527f6d656d626572734c696d69740000000000000000000000000000000000000000608082015230918101919091527fc94deff44dff6e4bb709db39a1d09900ce4f1405b187420e7b0c02212a3fdff79060a0015b60405180910390a150565b600080546104d190611479565b80601f01602080910402602001604051908101604052809291908181526020018280546104fd90611479565b801561054a5780601f1061051f5761010080835404028352916020019161054a565b820191906000526020600020905b81548152906001019060200180831161052d57829003601f168201915b505050505081565b6006546001600160a01b031633146105d25760405162461bcd60e51b815260206004820152603560248201527f4c6f7474657279436c7562546f6b656e3a204f6e6c79206d616e61676572206360448201527f616e2063616c6c20746869732066756e6374696f6e00000000000000000000006064820152608401610365565b60095460ff1661064a5760405162461bcd60e51b815260206004820152602660248201527f4c6f7474657279436c75624e46543a204c6f7474657279206973206e6f74207360448201527f74617274656400000000000000000000000000000000000000000000000000006064820152608401610365565b60035460085410156106c45760405162461bcd60e51b815260206004820152602260248201527f4c6f7474657279436c75624e46543a204e6f7420656e6f756768206d656d626560448201527f72730000000000000000000000000000000000000000000000000000000000006064820152608401610365565b6009805460ff19169055600880546106da611199565b6106e491906114b3565b815481106106f4576106f46114d5565b6000918252602080832091909101546005805473ffffffffffffffffffffffffffffffffffffffff19166001600160a01b0392831690811782558452600a90925260408084209390935560048054925460015494517f23b872dd000000000000000000000000000000000000000000000000000000008152309281019290925282166024820152604481019390935216906323b872dd90606401600060405180830381600087803b1580156107a857600080fd5b505af11580156107bc573d6000803e3d6000fd5b505050506107c8611216565b6005546040513081526001600160a01b03909116907f5356b2a7e89c0d12136f0b31d80b9f67ec8f4435581ac4b3ed8bf76c508034cf9060200160405180910390a2565b60095460ff166108845760405162461bcd60e51b815260206004820152602660248201527f4c6f7474657279436c75624e46543a204c6f7474657279206973206e6f74207360448201527f74617274656400000000000000000000000000000000000000000000000000006064820152608401610365565b60025434146108fb5760405162461bcd60e51b815260206004820152602d60248201527f4c6f7474657279436c75624e46543a204465706f73697420616d6f756e74206960448201527f73206e6f7420636f7272656374000000000000000000000000000000000000006064820152608401610365565b600354600854106109745760405162461bcd60e51b815260206004820152602560248201527f4c6f7474657279436c75624e46543a204d656d62657273206c696d697420726560448201527f61636865640000000000000000000000000000000000000000000000000000006064820152608401610365565b336000908152600a6020526040902054156109f75760405162461bcd60e51b815260206004820152602a60248201527f4c6f7474657279436c75624e46543a20596f752061726520616c72656164792060448201527f72656769737465726564000000000000000000000000000000000000000000006064820152608401610365565b336000818152600a602052604081203490556008805460018101825591527ff3f7a9fe364faab93b216da50a3214154f22a0a2b415b23a84c8169e8b636ee301805473ffffffffffffffffffffffffffffffffffffffff19169091179055565b6006546001600160a01b03163314610ad75760405162461bcd60e51b815260206004820152603560248201527f4c6f7474657279436c7562546f6b656e3a204f6e6c79206d616e61676572206360448201527f616e2063616c6c20746869732066756e6374696f6e00000000000000000000006064820152608401610365565b6001600160a01b038216610b535760405162461bcd60e51b815260206004820152602660248201527f4c6f7474657279436c75624e46543a205265776172642061646472657373206960448201527f73207a65726f00000000000000000000000000000000000000000000000000006064820152608401610365565b60095460ff1615610bb95760405162461bcd60e51b815260206004820152602a60248201527f4c6f7474657279436c75624e46543a204c6f747465727920697320616c726561604482015269191e481cdd185c9d195960b21b6064820152608401610365565b6004546001600160a01b031615610c385760405162461bcd60e51b815260206004820152602260248201527f4c6f7474657279436c75624e46543a2052657761726420616c7265616479207360448201527f65740000000000000000000000000000000000000000000000000000000000006064820152608401610365565b6040517f23b872dd000000000000000000000000000000000000000000000000000000008152336004820152306024820152604481018290526001600160a01b038316906323b872dd90606401600060405180830381600087803b158015610c9f57600080fd5b505af1158015610cb3573d6000803e3d6000fd5b50506004805473ffffffffffffffffffffffffffffffffffffffff19166001600160a01b03861690811790915560018481556009805460ff19169091179055604080518581523060208201529193507f331129293c17760fa0f180ae0c0c0f057cf8b60eca347635b69a7da57791745392500160405180910390a25050565b6007546001600160a01b03163314610db25760405162461bcd60e51b815260206004820152603360248201527f4c6f7474657279436c75624e46543a204f6e6c7920666163746f72792063616e60448201527f2063616c6c20746869732066756e6374696f6e000000000000000000000000006064820152608401610365565b6000610dbf858783611550565b506002929092556003556006805473ffffffffffffffffffffffffffffffffffffffff19166001600160a01b039092169190911790555050565b6006546001600160a01b03163314610e795760405162461bcd60e51b815260206004820152603560248201527f4c6f7474657279436c7562546f6b656e3a204f6e6c79206d616e61676572206360448201527f616e2063616c6c20746869732066756e6374696f6e00000000000000000000006064820152608401610365565b60095460ff1615610edf5760405162461bcd60e51b815260206004820152602a60248201527f4c6f7474657279436c75624e46543a204c6f747465727920697320616c726561604482015269191e481cdd185c9d195960b21b6064820152608401610365565b60004711610f2f5760405162461bcd60e51b815260206004820152601a60248201527f4c6f7474657279436c75624e46543a204e6f2062616c616e63650000000000006044820152606401610365565b604051600090339047908381818185875af1925050503d8060008114610f71576040519150601f19603f3d011682016040523d82523d6000602084013e610f76565b606091505b5050905080610fc75760405162461bcd60e51b815260206004820152601f60248201527f4c6f7474657279436c75624e46543a205472616e73666572206661696c6564006044820152606401610365565b50565b6006546001600160a01b0316331461104a5760405162461bcd60e51b815260206004820152603560248201527f4c6f7474657279436c7562546f6b656e3a204f6e6c79206d616e61676572206360448201527f616e2063616c6c20746869732066756e6374696f6e00000000000000000000006064820152608401610365565b60095460ff16156110b05760405162461bcd60e51b815260206004820152602a60248201527f4c6f7474657279436c75624e46543a204c6f747465727920697320616c726561604482015269191e481cdd185c9d195960b21b6064820152608401610365565b600081116111265760405162461bcd60e51b815260206004820152602e60248201527f4c6f7474657279436c75624e46543a204465706f736974206d7573742062652060448201527f67726561746572207468616e20300000000000000000000000000000000000006064820152608401610365565b6002819055604080518281526060602082018190526007908201527f6465706f73697400000000000000000000000000000000000000000000000000608082015230918101919091527fc94deff44dff6e4bb709db39a1d09900ce4f1405b187420e7b0c02212a3fdff79060a0016104b9565b600073dd318eef001bb0867cd5c134496d6cf5aa32311f6001600160a01b0316635ec01e4d6040518163ffffffff1660e01b8152600401602060405180830381865afa1580156111ed573d6000803e3d6000fd5b505050506040513d601f19601f820116820180604052508101906112119190611611565b919050565b60005b600854811015610fc7576000600a60006008848154811061123c5761123c6114d5565b60009182526020808320909101546001600160a01b0316835282019290925260400190205411156113255760006008828154811061127c5761127c6114d5565b6000918252602082200154600880546001600160a01b0390921692600a92909190869081106112ad576112ad6114d5565b6000918252602080832091909101546001600160a01b0316835282019290925260409081018220549051909181818185875af1925050503d8060008114611310576040519150601f19603f3d011682016040523d82523d6000602084013e611315565b606091505b505090508061132357600080fd5b505b8061132f8161162a565b915050611219565b60006020828403121561134957600080fd5b5035919050565b600060208083528351808285015260005b8181101561137d57858101830151858201604001528201611361565b8181111561138f576000604083870101525b50601f01601f1916929092016040019392505050565b80356001600160a01b038116811461121157600080fd5b600080604083850312156113cf57600080fd5b6113d8836113a5565b946020939093013593505050565b6000806000806000608086880312156113fe57600080fd5b853567ffffffffffffffff8082111561141657600080fd5b818801915088601f83011261142a57600080fd5b81358181111561143957600080fd5b89602082850101111561144b57600080fd5b6020928301975095505086013592506040860135915061146d606087016113a5565b90509295509295909350565b600181811c9082168061148d57607f821691505b6020821081036114ad57634e487b7160e01b600052602260045260246000fd5b50919050565b6000826114d057634e487b7160e01b600052601260045260246000fd5b500690565b634e487b7160e01b600052603260045260246000fd5b634e487b7160e01b600052604160045260246000fd5b601f82111561154b57600081815260208120601f850160051c810160208610156115285750805b601f850160051c820191505b8181101561154757828155600101611534565b5050505b505050565b67ffffffffffffffff831115611568576115686114eb565b61157c836115768354611479565b83611501565b6000601f8411600181146115b057600085156115985750838201355b600019600387901b1c1916600186901b17835561160a565b600083815260209020601f19861690835b828110156115e157868501358255602094850194600190920191016115c1565b50868210156115fe5760001960f88860031b161c19848701351681555b505060018560011b0183555b5050505050565b60006020828403121561162357600080fd5b5051919050565b6000600019820361164b57634e487b7160e01b600052601160045260246000fd5b506001019056fea2646970667358221220701d14adb8588e8e353d70aa41c1bb2653fe2fa7ccf7dd5ef958b3795099c2d964736f6c634300080f00336080604052600a805460ff1916905534801561001a57600080fd5b50600880546001600160a01b03199081163317909155600680549091169055611583806100486000396000f3fe608060405234801561001057600080fd5b50600436106101005760003560e01c806399d32fc411610097578063c45a015511610066578063c45a0155146101e6578063d0e30db0146101f9578063d426b5d414610202578063f5bade661461021557600080fd5b806399d32fc4146101ba578063a47ff04b146101c2578063a947c574146101cb578063be9a6555146101de57600080fd5b80631aa3a008116100d35780631aa3a0081461015d578063228cb73314610165578063481c6a751461017c5780638cf57cb9146101a757600080fd5b80630276f0501461010557806306fdde031461011a5780630d683dd9146101385780630eecae2114610155575b600080fd5b6101186101133660046111bd565b610228565b005b610122610392565b60405161012f91906111d6565b60405180910390f35b600a546101459060ff1681565b604051901515815260200161012f565b610118610420565b6101186107c3565b61016e60015481565b60405190815260200161012f565b60075461018f906001600160a01b031681565b6040516001600160a01b03909116815260200161012f565b60055461018f906001600160a01b031681565b610118610a36565b61016e60035481565b6101186101d9366004611242565b610c2f565b610118610d0f565b60085461018f906001600160a01b031681565b61016e60025481565b60065461018f906001600160a01b031681565b6101186102233660046111bd565b610e05565b6007546001600160a01b031633146102ad5760405162461bcd60e51b815260206004820152603560248201527f4c6f7474657279436c7562546f6b656e3a204f6e6c79206d616e61676572206360448201527f616e2063616c6c20746869732066756e6374696f6e000000000000000000000060648201526084015b60405180910390fd5b600a5460ff161561030c5760405162461bcd60e51b8152602060048201526024808201527f4c6f7474657279436c7562546f6b656e3a204c6f74746572792069732072756e6044820152636e696e6760e01b60648201526084016102a4565b600081116103825760405162461bcd60e51b815260206004820152603660248201527f4c6f7474657279436c7562546f6b656e3a204d656d62657273206c696d69742060448201527f6d7573742062652067726561746572207468616e20300000000000000000000060648201526084016102a4565b600381905561038f610f63565b50565b6000805461039f906112f8565b80601f01602080910402602001604051908101604052809291908181526020018280546103cb906112f8565b80156104185780601f106103ed57610100808354040283529160200191610418565b820191906000526020600020905b8154815290600101906020018083116103fb57829003601f168201915b505050505081565b6007546001600160a01b031633146104a05760405162461bcd60e51b815260206004820152603560248201527f4c6f7474657279436c7562546f6b656e3a204f6e6c79206d616e61676572206360448201527f616e2063616c6c20746869732066756e6374696f6e000000000000000000000060648201526084016102a4565b600a5460ff166105185760405162461bcd60e51b815260206004820152602860248201527f4c6f7474657279436c7562546f6b656e3a204c6f7474657279206973206e6f7460448201527f2072756e6e696e6700000000000000000000000000000000000000000000000060648201526084016102a4565b60035460095410156105915760405162461bcd60e51b8152602060048201526024808201527f4c6f7474657279436c7562546f6b656e3a204e6f7420656e6f756768206d656d60448201527f626572730000000000000000000000000000000000000000000000000000000060648201526084016102a4565b6001546005546040517f70a082310000000000000000000000000000000000000000000000000000000081523060048201526001600160a01b03909116906370a0823190602401602060405180830381865afa1580156105f5573d6000803e3d6000fd5b505050506040513d601f19601f820116820180604052508101906106199190611332565b101561068d5760405162461bcd60e51b815260206004820152602360248201527f4c6f7474657279436c7562546f6b656e3a204e6f7420656e6f7567682072657760448201527f617264000000000000000000000000000000000000000000000000000000000060648201526084016102a4565b600a805460ff19169055600980546106a3610ff6565b6106ad9190611361565b815481106106bd576106bd611375565b6000918252602090912001546006805473ffffffffffffffffffffffffffffffffffffffff19166001600160a01b039283169081179091556005546001546040517fa9059cbb000000000000000000000000000000000000000000000000000000008152600481019390935260248301529091169063a9059cbb906044016020604051808303816000875af115801561075a573d6000803e3d6000fd5b505050506040513d601f19601f8201168201806040525081019061077e919061138b565b506006546040513081526001600160a01b03909116907f5356b2a7e89c0d12136f0b31d80b9f67ec8f4435581ac4b3ed8bf76c508034cf9060200160405180910390a2565b600a5460ff1661083b5760405162461bcd60e51b815260206004820152602860248201527f4c6f7474657279436c7562546f6b656e3a204c6f7474657279206973206e6f7460448201527f2072756e6e696e6700000000000000000000000000000000000000000000000060648201526084016102a4565b600354600954106108b45760405162461bcd60e51b815260206004820152602760248201527f4c6f7474657279436c7562546f6b656e3a204d656d62657273206c696d69742060448201527f726561636865640000000000000000000000000000000000000000000000000060648201526084016102a4565b336000908152600b6020526040902054156109375760405162461bcd60e51b815260206004820152602c60248201527f4c6f7474657279436c7562546f6b656e3a20596f752061726520616c7265616460448201527f792072656769737465726564000000000000000000000000000000000000000060648201526084016102a4565b6005546002546040517f23b872dd00000000000000000000000000000000000000000000000000000000815233600482015230602482015260448101919091526001600160a01b03909116906323b872dd906064016020604051808303816000875af11580156109ab573d6000803e3d6000fd5b505050506040513d601f19601f820116820180604052508101906109cf919061138b565b50600254336000818152600b60205260408120929092556009805460018101825592527f6e1540171b6c0c960b71a7020d9f60077f6af931a8bbf590da0223dacf75c7af909101805473ffffffffffffffffffffffffffffffffffffffff19169091179055565b6007546001600160a01b03163314610ab65760405162461bcd60e51b815260206004820152603560248201527f4c6f7474657279436c7562546f6b656e3a204f6e6c79206d616e61676572206360448201527f616e2063616c6c20746869732066756e6374696f6e000000000000000000000060648201526084016102a4565b600a5460ff1615610b155760405162461bcd60e51b8152602060048201526024808201527f4c6f7474657279436c7562546f6b656e3a204c6f74746572792069732072756e6044820152636e696e6760e01b60648201526084016102a4565b600060045411610b8d5760405162461bcd60e51b815260206004820152602260248201527f4c6f7474657279436c7562546f6b656e3a204d616e616765722066656520697360448201527f203000000000000000000000000000000000000000000000000000000000000060648201526084016102a4565b60048054600082556005546007546040517fa9059cbb0000000000000000000000000000000000000000000000000000000081526001600160a01b039182169481019490945260248401839052919291169063a9059cbb906044016020604051808303816000875af1158015610c07573d6000803e3d6000fd5b505050506040513d601f19601f82011682018060405250810190610c2b919061138b565b5050565b6008546001600160a01b03163314610caf5760405162461bcd60e51b815260206004820152603560248201527f4c6f7474657279436c7562546f6b656e3a204f6e6c7920666163746f7279206360448201527f616e2063616c6c20746869732066756e6374696f6e000000000000000000000060648201526084016102a4565b6000610cbc888a83611412565b50600195909555600293909355600391909155600455600580546001600160a01b0392831673ffffffffffffffffffffffffffffffffffffffff1991821617909155600780549290931691161790555050565b6007546001600160a01b03163314610d8f5760405162461bcd60e51b815260206004820152603560248201527f4c6f7474657279436c7562546f6b656e3a204f6e6c79206d616e61676572206360448201527f616e2063616c6c20746869732066756e6374696f6e000000000000000000000060648201526084016102a4565b600a5460ff1615610dee5760405162461bcd60e51b8152602060048201526024808201527f4c6f7474657279436c7562546f6b656e3a204c6f74746572792069732072756e6044820152636e696e6760e01b60648201526084016102a4565b600a805460ff19166001179055610e03611073565b565b6007546001600160a01b03163314610e855760405162461bcd60e51b815260206004820152603560248201527f4c6f7474657279436c7562546f6b656e3a204f6e6c79206d616e61676572206360448201527f616e2063616c6c20746869732066756e6374696f6e000000000000000000000060648201526084016102a4565b600a5460ff1615610ee45760405162461bcd60e51b8152602060048201526024808201527f4c6f7474657279436c7562546f6b656e3a204c6f74746572792069732072756e6044820152636e696e6760e01b60648201526084016102a4565b60008111610f5a5760405162461bcd60e51b815260206004820152603060248201527f4c6f7474657279436c7562546f6b656e3a204465706f736974206d757374206260448201527f652067726561746572207468616e20300000000000000000000000000000000060648201526084016102a4565b600281905561038f5b6000610f7c60035460025461110b90919063ffffffff16565b9050610f946064610f8e83600261110b565b9061111e565b6004819055610fa490829061112a565b600181905560025460035460408051938452602084019290925282820152306060830152517fc26429a6bdd6b55c2a9cf99c9a5b312e635521d6d6e887e3e0754b613a755b5c9181900360800190a150565b600073dd318eef001bb0867cd5c134496d6cf5aa32311f6001600160a01b0316635ec01e4d6040518163ffffffff1660e01b8152600401602060405180830381865afa15801561104a573d6000803e3d6000fd5b505050506040513d601f19601f8201168201806040525081019061106e9190611332565b919050565b6006805473ffffffffffffffffffffffffffffffffffffffff1916905560005b6009548110156110ed576000600b6000600984815481106110b6576110b6611375565b60009182526020808320909101546001600160a01b03168352820192909252604001902055806110e5816114e9565b915050611093565b50604080516000815260208101918290525161038f91600991611136565b60006111178284611503565b9392505050565b60006111178284611522565b60006111178284611536565b828054828255906000526020600020908101928215611198579160200282015b82811115611198578251825473ffffffffffffffffffffffffffffffffffffffff19166001600160a01b03909116178255602090920191600190910190611156565b506111a49291506111a8565b5090565b5b808211156111a457600081556001016111a9565b6000602082840312156111cf57600080fd5b5035919050565b600060208083528351808285015260005b81811015611203578581018301518582016040015282016111e7565b81811115611215576000604083870101525b50601f01601f1916929092016040019392505050565b80356001600160a01b038116811461106e57600080fd5b60008060008060008060008060e0898b03121561125e57600080fd5b883567ffffffffffffffff8082111561127657600080fd5b818b0191508b601f83011261128a57600080fd5b81358181111561129957600080fd5b8c60208285010111156112ab57600080fd5b60209283019a5098505089013595506040890135945060608901359350608089013592506112db60a08a0161122b565b91506112e960c08a0161122b565b90509295985092959890939650565b600181811c9082168061130c57607f821691505b60208210810361132c57634e487b7160e01b600052602260045260246000fd5b50919050565b60006020828403121561134457600080fd5b5051919050565b634e487b7160e01b600052601260045260246000fd5b6000826113705761137061134b565b500690565b634e487b7160e01b600052603260045260246000fd5b60006020828403121561139d57600080fd5b8151801515811461111757600080fd5b634e487b7160e01b600052604160045260246000fd5b601f82111561140d57600081815260208120601f850160051c810160208610156113ea5750805b601f850160051c820191505b81811015611409578281556001016113f6565b5050505b505050565b67ffffffffffffffff83111561142a5761142a6113ad565b61143e8361143883546112f8565b836113c3565b6000601f841160018114611472576000851561145a5750838201355b600019600387901b1c1916600186901b1783556114cc565b600083815260209020601f19861690835b828110156114a35786850135825560209485019460019092019101611483565b50868210156114c05760001960f88860031b161c19848701351681555b505060018560011b0183555b5050505050565b634e487b7160e01b600052601160045260246000fd5b600060001982036114fc576114fc6114d3565b5060010190565b600081600019048311821515161561151d5761151d6114d3565b500290565b6000826115315761153161134b565b500490565b600082821015611548576115486114d3565b50039056fea264697066735822122063687e23c0f52614da9bf6336e304146dbd83e7e501a349ba2e22984f088c46a64736f6c634300080f0033a26469706673582212201dcf917adf57cf1ea4287d248bebc9d038d7144af231f4ea5669607d119a325164736f6c634300080f0033",
  "linkReferences": {},
  "deployedLinkReferences": {}
}